:020000040800F2
:1000000060210024E1020008D3300008DD2D000843
:10001000D1300008110400087D58000800000000DD
:10002000000000000000000000000000453500084E
:10003000790400080000000067320008513500080C
:10004000FB020008FB020008FB020008FB0200089C
:10005000FB020008FB020008FB020008FB0200088C
:10006000FB020008FB020008FB020008FB0200087C
:10007000FB020008FB020008FB020008FB0200086C
:10008000FB020008FB020008FB020008FB0200085C
:10009000FB020008FB020008FB020008FB0200084C
:1000A000FB020008FB020008FB020008FB0200083C
:1000B000FB020008FB020008FB020008FB0200082C
:1000C000FB020008FB020008FB020008FB0200081C
:1000D000FB020008FB020008FB020008FB0200080C
:1000E000FB020008FB02000800000000FB02000801
:1000F000FB020008FB020008FB020008FB020008EC
:10010000FB020008FB020008FB020008FB020008DB
:10011000FB020008FB020008FB020008FB020008CB
:10012000FB020008FB020008FB020008FB020008BB
:10013000FB020008FB020008FB020008FB020008AB
:1001400000000000000000000000000000000000AF
:10015000FB020008FB020008FB020008FB0200088B
:10016000FB020008FB020008E1300008D53000085F
:10017000FB020008ED300008FB0200080000000050
:10018000FB020008FB020008FB020008FB0200085B
:10019000FB020008FB020008FB020008FB0200084B
:1001A000FB020008FB020008FB0200080000000040
:1001B000FB020008FB020008FB020008FB0200082B
:1001C000FB020008FB020008000000000000000025
:1001D0000000000000000000FB020008000000001A
:1001E000000000000000000000000000000000000F
:1001F0000000000000000000FB020008FB020008F5
:10020000FB020008FB02000800000000FB020008DF
:10021000FB020008FB020008FB020008FB020008CA
:10022000FB02000800000000FB02000800000000C4
:10023000FB020008FB02000800000000FB020008AF
:10024000FB020008FB020008FB020008FB0200089A
:10025000FB020008FB020008FB020008FB0200088A
:10026000FB020008FB020008FB020008FB0200087A
:10027000FB020008FB020008FB020008000000006F
:10028000FB020008FB020008FB020008FB0200085A
:1002900000000000FB020008FB0200080000000054
:1002A00000000000FB020008FB020008FB0200083F
:1002B000FB020008FB020008FB020008FB0200082A
:1002C000FB020008FB020008FB020008DFF80CD06C
:1002D00000F08CF800480047C15800086021002455
:1002E0000648804706480047FEE7FEE7FEE7FEE7D0
:1002F000FEE7FEE7FEE7FEE7FEE7FEE7F53500086E
:10030000CD0200082DE9F05F0546002092469B468D
:1003100088460646814640241BE02846414647461B
:10032000224600F053F853465A46C01A914110D362
:1003300011461846224600F03AF82D1A67EB0108DC
:100340004F4622460120002100F031F817EB00094A
:100350004E41201EA4F10104DFDC484631462A4606
:100360004346BDE8F09F40EA01039B0703D009E044
:1003700008C9121F08C0042AFAD203E011F8013B91
:1003800000F8013B521EF9D27047D2B201E000F8EA
:10039000012B491EFBD270470022F6E710B5134629
:1003A0000A4604461946FFF7F0FF204610BD202AF2
:1003B00004DB203A00FA02F1002070479140C2F1BC
:1003C000200320FA03F3194390407047202A04DBEE
:1003D000203A21FA02F00021704721FA02F3D040BE
:1003E000C2F120029140084319467047064C074D60
:1003F00006E0E06840F0010394E8070098471034F5
:10040000AC42F6D3FFF766FF685900088859000828
:10041000FEE70020704700207047000005490022D9
:10042000054810B503F066FE0449034803F055FE85
:10043000002010BD340F002458020024340700248B
:100440000146044810B503F048FE024803F01EFEC2
:10045000002010BD58020024002070470A460146C3
:10046000044810B503F046FEBDE81040014803F013
:10047000B7BE000058020024704772B6FEE70000C5
:1004800070B5044600F022F90546601C02D004480D
:100490000078044400F01AF9401BA042FAD370BD62
:1004A000000000242DE9F84F03247A4D00234FF07B
:1004B00001094FF0B04B4FF00F0AE4E009FA03F6E0
:1004C000324078D00F7907F00307012F01D0022FB7
:1004D0001AD187684FEA430ED1F80CC004FA0EF81F
:1004E00027EA08070CFA0EFC4CEA070CC0F808C013
:1004F000476891F804C0B743CCF3001C0CFA03FC26
:100500004CEA070CC0F804C00E79F643B6070BD0CE
:10051000C6684FEA43088F6804FA08FC26EA0C060E
:1005200007FA08F73743C7600E7906F00306022E74
:1005300012D1DE080F694FEA437C00EB8606B6460F
:10054000366A4FEADC6C0AFA0CF807FA0CF726EA6E
:1005500008063743CEF820700F7906684FEA430843
:1005600007F0030704FA08FC07FA08F726EA0C0666
:10057000374307604E6816F4403F1CD0464E37683C
:1005800047F00207376036689F0706F002060096BC
:1005900023F0030606F1B046B6463F0FD6F80864CE
:1005A000DFF8F8800AFA07FC404526EA0C0603D17A
:1005B0004FF0000C3AE065E0DFF8E4C0604502D19E
:1005C0004FF0010C32E0DFF8DCC0604502D14FF0A3
:1005D000020C2BE0DFF8D0C0604502D14FF0030CD5
:1005E00024E0DFF8C8C0604502D14FF0040C1DE0E4
:1005F000DFF8BCC0604502D14FF0050C16E0DFF813
:10060000B4C0604502D14FF0060C0FE0DFF8A8C07F
:10061000604502D14FF0070C08E0DFF8A0C060454C
:1006200002D14FF0090C01E04FF00A0C0CFA07FC64
:100630004CEA060CCEF808C44F68DBF80060FF02F5
:1006400026EA020600D516435F46CBF80060D1F8D3
:1006500004C0DBF804605FEA8C2C26EA020600D5B1
:1006600016437E606E684F6826EA0206BF0300D517
:1006700016436E602E684F6826EA0206FF0300D517
:1006800016432E605B1C0A6832FA03F67FF416AF3D
:10069000BDE8F88F80000058F4440258000002586A
:1006A0000004025800080258000C025800100258BA
:1006B0000014025800180258001C02580024025866
:1006C0000AB1816170470904FBE7000001488068B6
:1006D000704700000000002402488168027811443D
:1006E0008160704700000024032010B500F086F8F8
:1006F00001F0BCFD0F4A104914681368C4F30322CB
:1007000003F00F038A5CC95C02F01F0201F01F01B5
:10071000D0400A4A20FA01F111600949086000201E
:1007200000F010F808B1012010BD00F02BF80020F7
:1007300010BD000018440258585900081000002449
:100740000C00002470B50D4D04462878A0B14FF47C
:100750007A71B1FBF0F00A490968B1FBF0F002F0E0
:1007600045FA48B9102C07D200222146501E00F04D
:1007700025F800206C6070BD012070BD00000024D1
:100780000C000024054808B5016841F00201016031
:10079000006800F00200009008BD0000F444025818
:1007A000002809DB410900F01F028900012001F146
:1007B000E0219040C1F80001704700000E4BF0B4FA
:1007C0001B680D46C3F30223C3F10706042E00D9AC
:1007D0000426191D072901D2002300E0DB1E012495
:1007E00004FA06F19C40491E2940641E99401440B9
:1007F0002143F0BC05F043B80CED00E0064900F0E1
:10080000070210B54FF6FF040868044B204040EA89
:1008100002201843086010BD0CED00E00000FA054E
:1008200001680123C0F80035002280F8F4248869AB
:10083000044A40F000608861486D1043486500201C
:1008400070470000030000107047006841620020FC
:100850007047F0B503685D6A39B19F6A4C1E00208D
:100860004FF4827605EB17450BE045EA02409862AB
:1008700010E0471C06EB800053F800C0F8B205EB0F
:100880001C45A042F5D34FF4807000EB810045EA8F
:1008900002421A500020F0BDD0F8080503F035BF21
:1008A00001EBC10200EB8202D0F80805926C03F064
:1008B00088BE01EBC10200EB8202D0F80805D2F835
:1008C000882203F0DABED0F8080503F020BF0A063C
:1008D00001F00F0101EBC10100EB810101D53C31B9
:1008E00001E001F51F71006804F00EBE01F00F0277
:1008F0000B0670B502EBC20104464FF001004FF049
:10090000000504EB810103D581F83D003C3103E093
:1009100081F87D5201F51F710A7094F8BC24012AF8
:1009200008D084F8BC04206804F00AFB002084F896
:10093000BC5470BD022070BD70B54268044601F021
:100940000F00904201D9012070BD01F00F024FF05D
:1009500000050B0602EBC2014FF0010204EB81011E
:1009600003D581F83D203C3103E081F87D5201F54B
:100970001F718D70087094F8BC04012808D084F8A9
:10098000BC24206804F04CFC002084F8BC5470BDEA
:10099000022070BD01F00F0101EBC10100EB8100ED
:1009A000D0F8900270472DE9F04101F00F0604469F
:1009B0000D064FF0010006EBC6014FF0000504EBF9
:1009C000810103D581F83D003C3103E081F87D527F
:1009D00001F51F714F788A600B710E7007B14E835D
:1009E000022B00D14D7194F8BC24012A09D084F85F
:1009F000BC04206804F0F2F9284684F8BC54BDE831
:100A0000F0810220FBE770B501F00F05002405EB33
:100A1000C50100EB810101F5227181E81C0001F89C
:100A20000B4C01F80C5DC368012B00D1CA61027B3D
:100A3000006804F04DFC002070BD70B50D464168A3
:100A4000044605F00F00884201D9012070BD290637
:100A50004FF000064FF0010207D500EBC00104EB98
:100A6000810181F83D203C3107E005EBC50104EB35
:100A7000810181F87D6201F51F718A70087094F818
:100A8000BC04012807D084F8BC24206804F0F4FBDF
:100A9000280702D007E0022070BD217B04F2C44287
:100AA000206804F091FB002084F8BC6470BD70B530
:100AB00001F00F04002504EBC401012600EB8101C5
:100AC000483181E82C0001F80B6C01F80C4DC3682B
:100AD000012B00D1CA61027B006804F0F9FB002001
:100AE00070BD00002DE9FC5F05680446284604F04F
:100AF000ACFD00287ED1206804F0D3FD002879D019
:100B0000D5F80808C0F30D20C4F8FC04206804F0F0
:100B1000C8FD800704D52068416901F002014161E8
:100B2000206804F0BEFDC10604F2C440009034D534
:100B30002068816921F0100181612F6A07F00F019F
:100B4000C7F3434001EBC101022804EB810606F51F
:100B50001F7602D0062811D01AE047F6F07007423F
:100B600016D0C7F30A12F1681746284604F09DFD17
:100B7000F16870693944F160384408E0009908224E
:100B8000284604F092FD7069C7F30A1108447061A9
:100B90002068816941F010018161206804F081FDC5
:100BA00000034FF0000A4FF0020B4FF001097CD513
:100BB0002068002604F054FD074674E0F80770D062
:100BC0002068F1B204F065FD8046C00707D005EB50
:100BD0004611C1F8089B3146204602F08DFA5FEAC3
:100BE000087025D505EB46110820C1F8080BFC4913
:100BF000206800E042E2026C00EB461001928A425B
:100C0000D0F8081B05D9090403D54FF40041C0F8FA
:100C1000081B204600F050FBF1490198884207D993
:100C2000E068012804D120680121009A04F0CCFA80
:100C30005FEAC86004D505EB46111020C1F8080B27
:100C40005FEA88701CD56869000605D5D5F80408E8
:100C500040F48061C5F8041806EBC60004EB800080
:100C600090F87F1200F51F70012905D180F803A0CC
:100C70002046F1B200F008FA05EB4611C1F808BBB6
:100C80005FEA886004D505EB46112020C1F8080B07
:100C90005FEA884005D505EB46114FF40050C1F8D6
:100CA000080B7F08761C002F88D1206804F0F9FC1F
:100CB00040036FD5206804F0CCFC0026074667E0AF
:100CC000F80763D02068F1B204F0D1FC8046C00779
:100CD00023D0D5F8342806F00F0C05EB461309FA9B
:100CE0000CF08243C5F83428C3F80899E06801285D
:100CF0000FD106EBC60004EB8000D0E911121144BD
:100D0000816436B9E06C20B920680121009A04F0B2
:100D10005BFA2046F1B2FFF7C3FD5FEA087004D525
:100D200005EB46110820C1F808095FEAC86004D540
:100D300005EB46111020C1F808095FEA486004D5A8
:100D400005EB46114020C1F808095FEA887016D506
:100D50003146284604F04CFC06EBC60004EB80004C
:100D600090F83F103C30012905D180F803A02046BF
:100D7000F1B200F085F905EB4611C1F808B95FEA58
:100D8000086003D53146204602F01CFA7F08761C25
:100D9000002F95D1206804F084FC002811DAD5F8E2
:100DA000040820F00101C5F8041894F8F40401289F
:100DB0003BD0204600F064FA2068416901F0004110
:100DC0004161206804F06DFC00050BD5D5F80808DA
:100DD000C00702D0204600F097FA2068416901F46C
:100DE00000614161206804F05CFC00010AD52068C4
:100DF000416901F00061416194F8F404E0B12046DA
:100E000000F082FA206804F04CFCC00472D5D5F8DA
:100E1000040820F00101C5F804182068102104F02E
:100E2000E7FB00214FF67F322DE00021204684F8B9
:100E3000F4A4FFF709FDBFE784F8F4942068406D3F
:100E40000121C0F38300C4F8F8042046FFF7FCFC3E
:100E5000D8E700BF05EB4110C0F80829D0F80039E9
:100E600023F40013C0F80039C0F8082BD0F8003B79
:100E700023F40013C0F8003BD0F8003B43F00063BC
:100E8000C0F8003B491C60688842E3D8D5F81C08CC
:100E900040F00111C5F81C18206B68B1D5F8840822
:100EA00040F00B01C5F88418D5F8440840F00B0158
:100EB0002846C5F844180DE0D5F8140842F22B0175
:100EC0000843C5F81408D5F8100840F00B0128466F
:100ED000C5F81018D0F8000820F4FE61C5F8001815
:100EE000217B2068009A04F06FF92068416901F4C1
:100EF00080514161206804F0D4FB800417D520683C
:100F000003F0ACFF206804F093FB206101F068F966
:100F1000217C2368CAB20146184604F027FC20460B
:100F200000F098F92068416901F40051416120689E
:100F300004F0B7FB000707D5204600F0A5F92068AC
:100F4000416901F008014161206804F0AAFB000634
:100F500016D5A869012620F08001A9610DE000BF27
:100F600006EBC60004EB800090F87F02012803D155
:100F70002046F1B2FFF7ABFC761C6068B042EFD8B8
:100F8000206804F08EFBC00221D501264F4616E0F2
:100F900006EBC60105EB461004EB8101D0F8000911
:100FA00091F84020012A09D1002807DAF0B281F82F
:100FB0003F7040F080012046FFF789FC761C606896
:100FC000B042E5D82068416901F480114161206890
:100FD00004F067FB800234D501204B4629E0000075
:100FE0000A30544F00EBC00205EB401104EB8202C3
:100FF000D1F8001B92F88062012E19D1002917DA6E
:1010000094F8FC6401F4803106F00106B1420FD17E
:1010100082F87F32A96941F08002AA6169690906F4
:1010200006D4D5F8040840F40070C5F8040803E0BD
:10103000401C61688142D5D82068416901F40011E3
:101040004161206804F02DFB400007D52046FFF7E2
:1010500023FC2068416901F080414161206804F06F
:1010600020FB40070AD520684568680702D520465E
:10107000FFF729FC2068416829434160BDE8FC9FD7
:10108000D0F8080503F09EBBD0F8080503F0AEBB0E
:101090002DE9F04104008AB005D094F8BD04002584
:1010A000266820B108E001200AB0BDE8F0812046A2
:1010B00084F8BC5400F066F8032084F8BD04F06B9B
:1010C000C00500D4E560206804F078F804F1100150
:1010D000684628228846FFF746F994E80F0003F097
:1010E000CBFE0227D8BB2068002104F0FEFA0020C6
:1010F000012610E000EBC001421C04EB810181F8E5
:101100003D6081F840504D648D64CD6481F83C00B1
:10111000A1F85600D0B261688142EBD8002011E0FE
:1011200000EBC001421C04EB810181F87D5281F883
:101130008052C1F88452C1F88852C1F88C5281F8AB
:101140007C02D0B261688142EAD8282241466846D2
:10115000FFF709F994E80F0003F074FF10B184F869
:10116000BD74A0E7606A84F8385084F8BD64012833
:1011700002D12046FFF754FB206803F055FF002002
:1011800092E7000070B5B4B0044614212EA8FFF712
:1011900003F9B8216846FFF7FFF82B492068884219
:1011A0004FD1002305201C46302502210E914FF41B
:1011B0008022CDE900238E02CDE90A05CDE90C108D
:1011C000CDE90F630A0568461193219200F03CFABD
:1011D00008B1FFF752F900F0D9F81C48016841F056
:1011E0000101016000682EA9309400F001003390E5
:1011F0004FF40070CDE92E041548FFF753F913485A
:101200000838016841F00071016000680022114651
:1012100000F0007033904A20FFF7D0FA4A20FFF721
:10122000BFFA00224B201146FFF7C8FA4B20FFF708
:10123000B7FA00224D201146FFF7C0FA4D20FFF704
:10124000AFFA34B070BD000000000440E044025822
:101250000000025870B504460069012570B10228EB
:1012600001D0FFF70AF9D4F80805294603F02DFB51
:10127000D4F80805BDE8704003F0E1BA0025F2E7B4
:10128000D0F8080503F00ABBD0F8080503F010BB3E
:1012900010B5044690F8BC0401280BD0012084F856
:1012A000381084F8BC04206804F04EFA002084F85A
:1012B000BC0410BD022010BDD0F8082500F2C441C6
:1012C000104603F00EBB10B590F8BC14044600683D
:1012D000012909D0012184F8BC14C16BC90509D4C6
:1012E000A16A012902D005E0022010BD816B41F402
:1012F00080318163206804F056F9206803F086FE8F
:10130000002084F8BC0410BD10B50446D0F80805D0
:1013100003F029FB2068D0F8001E41F00101C0F85D
:10132000001E206A002804D00248016841F006012E
:10133000016010BD10ED00E0134970B50A68D2439A
:10134000520705D5096801F00701814213D118E061
:101350000A6822F0070202430A60FFF7B7F90A4D54
:101360004FF47A760446083D07E000BFFFF7AEF978
:10137000001BB04201D9012070BD2868C043800421
:10138000F4D4002070BD00000C48025802480168E7
:1013900041F08071016070470C48025810B500F0B0
:1013A0001FFF05490968054AC1F30211515C01F0AC
:1013B0001F01C84010BD00002044025858590008C1
:1013C000494930B5484C0B1D0A68143409681D683A
:1013D000246802F00303C5F30012C1F30531C4F31E
:1013E000CC04002914FB02F200EE102AF8EE400AA9
:1013F00075D03F4A9FED3D1AB7EE000A6BB1DFEDA5
:101400003D1A012B01D0022B64D002EE101A116894
:10141000F8EE422A81EEA22A21E0334C283C2368D0
:101420009B0612D5344B246801EE901A1168C4F360
:10143000C104F8EE612AE34001EE903AC1F30801DD
:10144000F8EE611A81EEA22A0BE001EE901ADFEDB0
:101450002B2A00BFF8EE611A116882EEA12AC1F3AF
:10146000080101EE901A1168F8EE611A40EE811A37
:1014700071EE800A62EE200AC1F3462101EE101AD5
:10148000B8EE411A31EE001AC0EE811ABCEEE11A34
:1014900080ED001A1168C1F3064101EE101AB8EE92
:1014A000411A31EE001AC0EE811ABCEEE11A80ED4D
:1014B000011A1168C1F3066101EE101AB8EE411A63
:1014C00031EE000A80EE801ABCEEC10A80ED020AFD
:1014D00030BD04E001EE901ADFED092ABAE70021E1
:1014E000016041608160F3E7284402580000003940
:1014F000384402580024744A0090D0030024744CED
:1015000020BCBE4B494930B5484C0B1D0A681C3401
:1015100009681D68246802F00303C5F30022C1F3C3
:101520000551C4F3CC04002914FB02F200EE102A8A
:10153000F8EE400A75D03F4A9FED3D1AB7EE000A1B
:101540006BB1DFED3D1A012B01D0022B64D002EE0E
:10155000101A1168F8EE422A81EEA22A21E0334CDB
:10156000283C23689B0612D5344B246801EE901A60
:101570001168C4F3C104F8EE612AE34001EE903A29
:10158000C1F30801F8EE611A81EEA22A0BE001EE28
:10159000901ADFED2B2A00BFF8EE611A116882EE77
:1015A000A12AC1F3080101EE901A1168F8EE611A40
:1015B00040EE811A71EE800A62EE200AC1F34621E4
:1015C00001EE101AB8EE411A31EE001AC0EE811A7F
:1015D000BCEEE11A80ED001A1168C1F3064101EE7C
:1015E000101AB8EE411A31EE001AC0EE811ABCEEA4
:1015F000E11A80ED011A1168C1F3066101EE101ABB
:10160000B8EE411A31EE000A80EE801ABCEEC10A33
:1016100080ED020A30BD04E001EE901ADFED092AE8
:10162000BAE70021016041608160F3E72844025875
:1016300000000039404402580024744A0090D0034E
:101640000024744C20BCBE4B2DE9FE4F0546DFF84C
:1016500000A450F8081B0024FD4FC943019005F178
:10166000280026460AF1240A009008011DD4686E5D
:1016700050B1B0F5801F0CD0B0F5001F0ED0B0F502
:10168000401F1ED001240FE0386840F4003038605D
:1016900017E00198022101F0E7FD03E00098022124
:1016A00001F072FE04000CD026462888C043C00515
:1016B00023D4A86D05281ED2DFE800F00C11161BFC
:1016C0001B006A6EDAF8001021F440111143CAF8C9
:1016D0000010EAE7386840F40030386009E001980B
:1016E000002101F0C1FD03E00098002101F04CFE53
:1016F0000446C4B100E0012426462888DFF8508360
:10170000C04308F12C0840052FD4D5F8A400B0F54B
:10171000C00F28D010DCB8B1B0F5001F19D0B0F55B
:10172000800F0FD11AE0AA6DDAF8001021F007013E
:101730001143CAF80010E0E7B0F5000F13D0B0F580
:10174000200F10D001240FE0386840F400303860DA
:1017500009E00198002101F087FD03E000980021D5
:1017600001F012FE044694B126462888C0430005C5
:1017700030D4D5F8A800B0F1407F29D011DCC0B139
:10178000B0F1807F1AD0B0F1007F10D11BE0D5F806
:10179000A420D8F8001021F460011143C8F800100B
:1017A000E3E7B0F1806F13D0B0F1A06F10D0012447
:1017B0000FE0386840F40030386009E001980021FB
:1017C00001F052FD03E00098002101F0DDFD044628
:1017D00094B126462868DFF878B2C0430BF1200B9D
:1017E00080011FD4E86CD8B110280FD0202812D067
:1017F000302815D0012414E0D5F8A820D8F800101E
:1018000021F0E0611143C8F80010E3E7386840F4C4
:101810000030386004E00198022101F025FD044603
:1018200074B126462888C043C0042BD4E86DB0F5B7
:10183000005F20D00DDCA0B1B0F5805F0FD115E0C6
:10184000EA6CDBF8001021F030011143CBF80010F6
:10185000E8E7B0F5405F13D0B0F5804F10D0012419
:101860000FE0386840F40030386009E0019800214A
:1018700001F0FAFC03E00098002101F085FD044628
:101880008CB126462888C043800429D4286EB0F540
:10189000403F23D010DC08B3B0F5803F14D0B0F542
:1018A000003F0FD115E0EA6DDAF8001021F4E041B5
:1018B0001143CAF80010E5E7B0F5802F0ED0B0F55F
:1018C000A02F0BD001240AE00198012101F0CCFCEB
:1018D00003E00098012101F057FD044694B126462B
:1018E0002888C04340042AD4D5F8AC00B0F1405F4A
:1018F00023D010DC08B3B0F1805F14D0B0F1005FEA
:101900000FD115E02A6EDAF8001021F4E02111431E
:10191000CAF80010E4E7B0F1804F0ED0B0F1A04F4C
:101920000BD001240AE00198012101F09DFC03E0A5
:101930000098012101F028FD044674B1264628884C
:10194000C04300041FD4E86ED8B1B0F1805F0ED060
:10195000B0F1005F10D0012414E0D5F8AC20D8F825
:10196000001021F0E0411143C8F80010E7E73868A3
:1019700040F40030386004E00198012101F074FC6B
:10198000044674B126462868C043C0011ED4A86C22
:10199000D0B101280ED0022811D0032814D0012480
:1019A00013E0EA6EDAF8001021F040511143CAF852
:1019B0000010E8E7386840F40030386004E001982F
:1019C000022101F051FC04466CB126462868C04350
:1019D000400255D41F48016841F480710160FEF750
:1019E00075FE81460EE0AA6CDBF8001021F00301C1
:1019F0001143CBF80010E9E7FEF768FEA0EB090001
:101A000064283BD813480068C005F5D5BCBBDFF897
:101A10004090B5F8B01009F14409D9F8000001F47C
:101A2000407100F44070884211D0D9F80010D9F804
:101A3000002021F4407142F48032C9F80020D9F826
:101A4000002022F48032C9F80020C9F8001003E019
:101A50002C44025800480258D5F8B000B0F5807FF9
:101A600019D1FEF733FE029011E000BFFEF72EFE03
:101A70000299411A41F28830814208D9032426464E
:101A80002878DFF81494C043C00721D03CE0D9F88F
:101A900000008007EAD5D5F8B010C1F30120032873
:101AA000FE480DD0016821F47C510160B5F8B020EA
:101AB000D9F80010C2F30B021143C9F80010DFE798
:101AC000F74A036802EA111223F47C511143ECE750
:101AD000A86F182816D005DCA0B1082808D0102857
:101AE00004D10AE020280DD028280BD001240AE0D8
:101AF0000198012101F0B8FB03E00098012101F0F9
:101B000043FC044664B126462878C04380071ED4AF
:101B1000686F062819D2DFE800F0160C11161616A9
:101B2000AA6FD9F8001021F038011143C9F800104C
:101B3000EAE70198012101F097FB03E000980121F9
:101B400001F022FC04467CB100E0012426462878FE
:101B5000C04340071FD4D5F89000062819D2DFE80B
:101B600000F0160C111616166A6FD9F8001021F045
:101B700007011143C9F80010E9E70198012101F0BC
:101B800073FB03E00098012101F0FEFB0446A4B1C1
:101B900000E0012426462878C04380062BD4D5F8DF
:101BA0008C00B0F1405F24D011DC10B3B0F1805F45
:101BB00015D0B0F1005F10D116E0D5F89020D8F81C
:101BC000001021F007011143C8F80010E3E7B0F15D
:101BD000804F0ED0B0F1A04F0BD001240AE0019845
:101BE000002101F041FB03E00098022101F0CCFB51
:101BF000044694B126462878C04340062BD4D5F835
:101C00009800B0F5406F24D011DC10B3B0F5806FB0
:101C100015D0B0F5006F10D116E0D5F88C20D9F8AA
:101C2000001021F0E0411143C9F80010E3E7B0F5DE
:101C3000805F0ED0B0F5A05F0BD001240AE00198C0
:101C4000002101F011FB03E00098022101F09CFB50
:101C5000044694B126462878C04300062BD4D5F814
:101C60009C00B0F5C04F24D011DC10B3B0F5005F7C
:101C700015D0B0F5804F10D116E0D5F89820D8F8DF
:101C8000001021F4E0511143C8F80010E3E7B0F56B
:101C9000004F0ED0B0F5204F0BD001240AE0019880
:101CA000002101F0E1FA03E00098022101F06CFB51
:101CB000044654B126462878C04300071ED4D5F800
:101CC0008000B0F5805F0AD00FE0D5F89C20D8F8EE
:101CD000001021F460411143C8F80010EBE70098B0
:101CE000022101F051FB00B10126D5F88020D9F87E
:101CF000001021F440511143C9F800102878C04366
:101D0000C00613D4D5F89400B0F5807F05D10098B3
:101D1000022101F039FB00B10126D5F89420D8F852
:101D2000001021F440711143C8F800102868C04326
:101D3000000316D4D5F8A00038B1B0F5803F09D023
:101D4000B0F5003F0BD001240AE00198002101F01A
:101D50008BFA03E00098022101F016FB04468CB1D7
:101D600026462868C043400322D4D5F88400B0F545
:101D7000801F11D0B0F5001F13D0B0F5401F15D053
:101D8000012414E0D5F8A020D8F8001021F4403147
:101D90001143C8F80010E4E7386840F400303860B8
:101DA00004E00098012101F0EFFA04465CB12646F8
:101DB0002868C043C0031CD4286D70B1B0F5803FC3
:101DC00010D0012414E0D5F88420D9F8001021F4B3
:101DD00040111143C9F80010EAE7386840F40030B8
:101DE000386004E00198022101F03EFA0446DCB1BB
:101DF00026462868C043800005D40098022101F0DF
:101E0000C3FA00B101262868C04380031BD4E86FE1
:101E1000B8B1B0F5807F10D0B0F5007F11D0B0F52B
:101E2000407F0ED001240DE02A6DDBF8001021F474
:101E300080311143CBF80010DBE7386840F4003004
:101E400038607CB326462868C043C00207D42A6F96
:101E5000DAF8001021F000411143CAF80010286898
:101E6000C043800207D4AA6EDAF8001021F0807116
:101E70001143CAF800102868C043400009D407483D
:101E8000016821F4004101600168D5F8B4201143D4
:101E900001602868C04306E05444025810440258C8
:101EA000CFFFFF001DE007D46A6DDBF8001021F0C2
:101EB00040511143CBF800102868C043000208D4F9
:101EC000D5F88820D9F8001021F440011143C9F851
:101ED000001028790024C04300F00100204309D0FD
:101EE0000EE0EA6FD9F8001021F440711143C9F8EF
:101EF0000010A8E70198002101F0B6F900B10646EC
:101F00002879C04300F00200204305D10198012147
:101F100001F0AAF900B106462879C04300F0040098
:101F2000204305D10198022101F09EF900B1064637
:101F30002879C04300F00800204305D10098002113
:101F400001F022FA00B106462879C04300F01000E3
:101F5000204305D10098012101F016FA00B1064690
:101F60002879C04300F02000044304D100980221E6
:101F700001F00AFA00B916B10120BDE8FE8F002079
:101F8000FBE700002DE9F05F04000F467ED0DFF88C
:101F90003882D8F8000000F00F00B8420CD2D8F810
:101FA000001021F00F013943C8F80010D8F80000E4
:101FB00000F00F00B84269D12078844D40070AD55F
:101FC0002069296801F07001884204D9296821F04C
:101FD00070010143296020787C4E361D00070AD528
:101FE0006069316801F07001884204D9316821F0DC
:101FF0007001014331602078C0060AD5A0693168BC
:1020000001F4E061884204D9316821F4E0610143C0
:1020100031602078DFF8B4B180060BF1080B0CD5E5
:10202000E1695846DBF8002002F07002914204D9C1
:10203000026822F070020A430260207880070AD505
:10204000E068296801F00F01884204D9296821F06D
:102050000F01014329602078C0073ED05B49A26888
:102060002868183920F470601043286060680228DE
:1020700018D0032819D00968012819D04907002968
:102080004ADADFF848A1AAF1080A00E044E0DAF8E9
:10209000002022F007020243CAF80020FEF716FBD8
:1020A000814612E009688903E9E709688901E6E7E2
:1020B000C905E4E7FEF70AFBA0EB090141F288300D
:1020C000814202D90320BDE8F09F6168DAF8000080
:1020D00000F03800B0EBC10FECD1207880070AD5B2
:1020E000E068296801F00F01884204D2296821F0D4
:1020F0000F0101432960D8F80010404601F00F019C
:10210000B9420BD9016821F00F0139430160006821
:1021100000F00F00B84201D00120D4E7207840073A
:102120000AD52069296801F07001884204D2296823
:1021300021F0700101432960207800070AD5606909
:10214000316801F07001884204D2316821F07001D9
:10215000014331602078C0060AD5A069316801F4D6
:10216000E061884204D2316821F4E06101433160CA
:10217000207880060CD5E1695846DBF8002002F093
:102180007002914204D2026822F070020A43026097
:1021900000F06CF80E492A682B68C2F3032203F0A2
:1021A0000F038A5CC95C02F01F0201F01F01D040DE
:1021B000084A20FA01F111600749086007480068E1
:1021C000BDE8F05FFEF7BEBA002000521844025886
:1021D00058590008100000240C00002404000024BA
:1021E00030B500F043F80B4A0B490C4B15681468E6
:1021F000C5F3032204F00F048A5C095D02F01F029C
:1022000001F01F01D040064A20FA01F11960106068
:10221000084630BD184402585859000810000024E0
:102220000C00002400B5FFF7DBFF05490968054AEB
:10223000C1F30211515C01F01F01C84000BD000054
:102240001C4402585859000800B5FFF7C9FF05495A
:102250000968054AC1F30221515C01F01F01C84021
:1022600000BD00001C44025858590008454970B58B
:1022700045480968434B103B11F0380208D0011162
:10228000082A03D0102A0BD0182A0BD0084670BD9C
:1022900019688906FBD51968C1F3C101C84070BD32
:1022A0003A4870BD3749374D18310C1D24350A683E
:1022B000096826682D6802F0030406F00102C1F3E4
:1022C0000511C5F3CC0515FB02F200EE102AB8EE9D
:1022D000400AE9B32F4ADFED2E0AB7EE001A6CB1BF
:1022E000DFED2D1A012C01D0022C43D002EE101A82
:1022F0001068F8EE422A81EEA22A1EE01C68A406AD
:1023000011D51B6801EE901A1168C3F3C103F8EEF2
:10231000612AD84001EE900AC1F30800F8EE611A74
:1023200081EEA22A0BE001EE901ADFED1C2A00BF1D
:10233000F8EE611A106882EEA12AC0F3080001EEDF
:10234000900AF8EE611A40EE201A31EE810A00E0A0
:1023500015E022EE000A1068C0F34620401C00EE93
:10236000900AF8EE600A80EE201ABCEEC10A10EE68
:10237000100A70BD01EE901ADFED092AD8E700209F
:1023800070BD0000104402580090D00340787D01D9
:1023900000000039304402580024744A0024744C70
:1023A00020BCBE4B2DE9F05F04007DD0FF4F2078AC
:1023B000FE4D1837DFF8F483103DC00748D0D8F839
:1023C0000000396800F03800102815D0182803D113
:1023D00001F0030002280FD06068B0F5803F12D0F2
:1023E00010B1B0F5A02F18D0286820F480302860F4
:1023F000286820F4802009E02868800328D56068D8
:102400000028D2D024E0286840F48030286060683A
:1024100088B1FEF75BF9064609E0286840F48020A1
:102420002860F0E7FEF752F9801B64287ED8286800
:102430008003F7D50CE0FEF749F9064605E000BF3A
:10244000FEF744F9801B6428F0D828688003F7D48D
:102450002078800756D5D8F80000DFF85093396807
:1024600010F03800A9F10C090ED0182801D1880706
:102470000AD0E068A8B3296821F019010143296056
:10248000FEF724F9064628E02868400702D5E068F0
:1024900000288AD0E168286820F0190008432860E5
:1024A000FEF714F9064606E0D2E000BFFEF70EF98B
:1024B000801B0228BAD828684007F7D5217CD9F8B4
:1024C000002022F0FE4242EA0161C9F8001019E042
:1024D000FEF7FCF8801B0228A8D828684007F7D52B
:1024E000ECE7FFE7286820F001002860FEF7EEF82F
:1024F000064604E0FEF7EAF8801B022896D8286812
:102500004007F7D42078C00646D5D8F80000DFF899
:102510009C92396800F03800A9F10409082812D00B
:10252000182805D101F00300012800E0CEE00AD010
:10253000E0690028286820D040F080002860FEF77D
:10254000C5F8064615E02868C00502D5E069802870
:102550007ED194F82010D9F8002022F07C5242EA73
:102560000161C9F8001017E0FEF7B0F8801B0228DF
:10257000A0D82868C005F7D5EBE720F080002860D8
:10258000FEF7A4F8064604E0FEF7A0F8801B022838
:1025900090D82868C005F7D42078000729D583484B
:1025A0006169643000298146016811D041F0010160
:1025B0000160FEF78BF8064605E000BFFEF786F8DF
:1025C000801B022888D8D9F800008007F6D510E0D3
:1025D00021F001010160FEF779F8064605E000BF31
:1025E000FEF774F8801B022870D8D9F80000800725
:1025F000F6D42078800623D5A0690028286810D05A
:1026000040F480502860FEF761F8064605E000BF00
:10261000FEF75CF8801B022858D828688004F7D59C
:102620000EE020F480502860FEF750F8064604E0E3
:10263000FEF74CF8801B022848D828688004F7D49D
:102640002078400751D5DFF86891D9F8001000E0F4
:1026500015E141F48071C9F80010FEF737F806461D
:1026600005E000BFFEF732F8801B64282ED8D9F8A9
:102670000000C005F6D54D4EA068603601280AD08E
:1026800008B1052813D0306820F0010030603068B0
:1026900020F0040002E0306840F001003060A068E3
:1026A00041F2883A98B1FEF711F881460AE03068A5
:1026B00040F004003060EEE7FEF708F8A0EB0901F7
:1026C000514503D830688007F6D50EE072E0FDF77B
:1026D000FDFF814606E000BFFDF7F8FFA0EB090112
:1026E000514567D830688007F6D4606A00287CD0EE
:1026F000DFF8B8A0D8F800100AF1200A4FF6F87BEE
:102700000AF10408C1F3C2010329AAF104096DD03A
:102710000228286820F08070286003D0FDF7D6FFDB
:10272000044681E0FDF7D2FF064604E0FDF7CEFF48
:10273000801B022875D828688001F7D4E26A40F22D
:10274000F331386854F8283F884340EA02101843B0
:102750003860217B4FF4FE0C22894FF0FE47208A1F
:102760004902267D521E401EA1F5007189B2C2F3B6
:1027700008021143761E0CEA00400143484607EA6E
:1027800006621143CAF80010D9F8001021F00101C7
:10279000C9F80010D8F80030266A23EA0B0343EA90
:1027A000C601C8F80010D9F8001004E0104402581F
:1027B0000048025835E0A26921F00C011143C9F824
:1027C00000100168E26921F0020111430160016813
:1027D00041F480310160016841F400310160016819
:1027E00041F480210160016801E06CE020E041F0EB
:1027F00001010160286840F080702860FDF766FFE5
:10280000044604E0FDF762FF001B022809D828688F
:102810008001F7D557E000BFFDF758FF001B0228E5
:1028200002D90320BDE8F09F28688001F4D44AE073
:1028300039680128DAF8000021D0A26A01F0030308
:1028400093421CD1E26AC1F305118A4217D1216B70
:10285000C0F30802491E8A4211D1616BC0F34622BF
:10286000491E91420BD1A16BC0F30642491E914211
:1028700005D1E16BC0F30660491E814201D0012001
:10288000D0E7A16C4646D8F80000C0F3CC008142E6
:1028900019D0D9F800004D4620F00100C9F8000019
:1028A000FDF714FF4FEA0007FDF710FFB842FBD019
:1028B000A26C306820EA0B0040EAC2003060286851
:1028C00040F0010028600020ACE7000070B5040073
:1028D0004FF0010041D094F8210028B9002084F87D
:1028E0002000204600F042F8022084F821002068F1
:1028F000C168C943C90631D5CA2242625321206842
:102900004162204600F0D0FD18BB2068164A81685D
:1029100011408160D4E90003A569226981682A43D6
:1029200019431143816022682189E06840EA01402F
:102930001061204600F0DCFD58B92168CA6C22F015
:102940000302CA6422686369E169D56C19432943AB
:10295000D1642268FF21516208B170BD00200121BD
:1029600084F8211070BD0000BFFF8FFF10B5AEB01E
:102970000446B8216846FDF70FFD0B4920688842E0
:1029800010D1010200204A132C92CDE900106846B4
:10299000FEF75AFE08B1FDF770FD0448016841F4E6
:1029A000004101602EB010BD004000587044025834
:1029B00070B5016804460B48C860FDF787FE4FF408
:1029C0007A76054607E000BFFDF780FE401BB04267
:1029D00001D9032070BD2068C0688006F4D50020AE
:1029E00070BD00005FFF03002DE9F047040029D00F
:1029F000594A4FF000092068584B594D9042C4F88D
:102A0000289006D0984204D0A84202D0E1680F294D
:102A100018D8E1684FF0010AE76B0831C9080AEBE2
:102A200057167143904205D0984203D0A84201D076
:102A3000082907D8904203D0984201D0A84204D177
:102A4000102902D90120BDE8F08794F8810020B94F
:102A5000204684F8809000F085F8022084F88100F8
:102A60002068016821F0010101602068A169826885
:102A7000B1F1806F02F4F81110D16268B2F5800FE5
:102A800001D01AB10AE0A26B22B107E0A26BB2F149
:102A9000805F03D1026842F48052026060684002A5
:102AA00009D5E068072806D32068236D026822F460
:102AB00080721A4303E02068026822F48072026088
:102AC000A66AE069E26B25683043E3680A43104375
:102AD0001843A860D4E90D02D4E90581636A256929
:102AE0001843D4F820C00A43266810432843A56D34
:102AF000D4E90172D4E9123140EA080040EA0C003E
:102B000038430843104318432843F060606868B9AD
:102B10002068816821F4C05141F40061816020681F
:102B2000816821F4C06141F4806181602068016D99
:102B300021F0010101656068400206D52068626DE0
:102B4000C16821F000411143C160C4F8849084F849
:102B500081A0002077E700000030014000380040ED
:102B6000003C004010B5B4B0044614212EA8FDF777
:102B700013FCB8216846FDF70FFC1949206888420C
:102B80002BD14114002018900446CDE9001068466E
:102B9000FEF75AFD08B1FDF770FC1248016841F4D8
:102BA00000510160006800F4005033900D48103867
:102BB000016841F01001016000682EAB022100F0B5
:102BC000100033904FF4E040052283E813000648DC
:102BD0002EA9CDE93142FDF765FC34B010BD0000EF
:102BE00000340140F044025800100258401EB0F179
:102BF000807F10B501D3012010BD4FF0E02460614B
:102C00000F21601702F03BFE0020A0610721216127
:102C100010BD30B590F88410012918D0012280F839
:102C200084202421C0F888100022202401680B6829
:102C30000D6823F0005325F001050D604266016820
:102C40000B60C0F8884080F88420104630BD022018
:102C500030BD70B5044690F8840001281DD00122D3
:102C600084F884202420C4F888002068056802685D
:102C700022F0010202602068826822F060620A434A
:102C80008260204600F016FD226820210020156099
:102C9000C4F8881084F8840070BD022070BD70B53F
:102CA000044690F8840001281DD0012284F8842075
:102CB0002420C4F8880020680568026822F0010218
:102CC00002602068826822F060420A4382602046E7
:102CD00000F0F0FC2268202100201560C4F8881064
:102CE00084F8840070BD022070BD10B5040003D0CC
:102CF000D4F8880010B107E0012010BD002084F84E
:102D00008400204600F026F82420C4F888002068BB
:102D1000016821F001010160204600F0D1FD012889
:102D2000EBD0A06A10B1204600F0E6FC20684168B4
:102D300021F4904141602068816821F02A0181607E
:102D40002068016841F0010101602046BDE81040A3
:102D500000F036BD10B5B4B0044614212EA8FDF71E
:102D60001BFBB8216846FDF717FB1949206888420C
:102D70002BD100201D9002210446CDE900106846A9
:102D8000FEF762FC08B1FDF778FB1248016841F4D8
:102D900080210160006800F4802033900D480838DD
:102DA000016841F00801016000682EAB022100F0CB
:102DB000080033904FF44070072283E81300064860
:102DC0002EA9CDE93142FDF76DFB34B010BD0000F6
:102DD00000480040E8440258000C0258FEE700009A
:102DE000F0B500230A251C463026372711E000BF26
:102DF000B5EB107F02D906EB107C01E007EB107CED
:102E000001F813C001EB430C00015B1C8CF801407E
:102E1000DBB29342ECD3F0BD2DE9F04F87B0142123
:102E20006846FDF7B9FA6048016841F01001016099
:102E3000016801F010010591016841F00401016091
:102E4000016801F004010591016841F08001016011
:102E5000016801F080010591016841F00101016004
:102E6000016801F001010591016841F00201016072
:102E7000016801F002010591016841F0080101605B
:102E8000016801F008010591016841F0400101600D
:102E9000006840F67F24454F002200F040002146A4
:102EA00005903846FDF70CFCDFF804B143F6CF7609
:102EB000002231465846FDF703FC3E4800220F2110
:102EC000FDF7FEFB40F2E7393B4800224946FDF79B
:102ED000F7FB4FF4744A394800225146FDF7F0FBE6
:102EE00001223448D103FDF7EBFB01256946384642
:102EF000CDE90045002402940394FDF7D3FA00962F
:102F00006946CDE9015458460394FDF7CBFA48F2DF
:102F10000F000090CDE90154264869460394FDF75F
:102F2000C1FA0B274FF080080226CDF80080CDE9CA
:102F3000016420486946CDE90347FDF7B3FA302024
:102F40000090CDE90164CDE9034769465846FDF795
:102F5000A9FACDF800906946CDE9015416480394CA
:102F6000FDF7A0FACDF800A06946CDE90154134859
:102F70000394FDF797FA124D4FF48811CDF80080B5
:102F8000CDE9011469462846FDF78CFA4FF420502C
:102F90000090CDE90164CDE9034769462846FDF775
:102FA00081FA07B0BDE8F08FE044025800100258E3
:102FB000000802580000025800040258000C025891
:102FC0000018025870B5134807224FF48004104DC2
:102FD00000212301C0E9021201611A01C0E90513B1
:102FE000C161016241628162C162C0E90D21C163B8
:102FF000016441648164C164016541658165C0E922
:103000000054FFF7F1FC002801D072B6FEE770BD56
:10301000003401403C0100241748002110B5154C34
:103020000C224FF4E1330460C0E90131C160C0E912
:1030300004128161C161016241628162FFF755FE44
:1030400008B172B6FEE70C480021FFF728FE08B170
:1030500072B6FEE708480021FFF7FBFD08B172B623
:10306000FEE70548FFF7D5FD002801D072B6FEE760
:1030700010BD000000480040C40100241049012296
:10308000104810B501F078FA08B1FDF7F6F90E49CD
:103090000C4801F093FC08B1FDF7EFF90B49094822
:1030A00001F010F808B1FDF7E8F9064801F00CFD51
:1030B00008B1FDF7E2F9BDE81040FEF767B900007E
:1030C0001400002458020024E000002474000024AE
:1030D000FEE7FEE70148FDF705BD00005418002497
:1030E0000148FDF7FFBC0000541800240148FDF71B
:1030F000F9BC0000541800242DE9F0410446C068D2
:103100000D462027236801284FF4004604F2C442EC
:1031100003EB4511D3F840C0D1F8080B09D0DFF814
:103120009CE0F4453AD1020433D500BFC1F8086BE6
:1031300040E0234B5FEA007E04D59C453AD9000469
:10314000F4D437E05FEA806E02D5C1F8087B31E045
:1031500010F0280F2ED19C4501D90004E6D4D1F8F7
:10316000101B05EBC50004EB8000C1F31201D0F881
:103170009C32A3EB0101C0F8901200F51F70ADB9AD
:1031800003691BB1C2681144C1600FE020680121CE
:103190000AE080060AD5C1F8087B07E035B9D4F803
:1031A0008C0218B90021184602F00EF82046E9B248
:1031B000FDF77FFB0020BDE8F08100000A31544F8D
:1031C0000A30544F2DE9F84F0E460568814601EB51
:1031D000C60100EB8104D4E913203C34904202D9AB
:1031E0000120BDE8F88FA168101A814200D208467C
:1031F000C01C05EB461887081BE000BFA268A0EBC7
:10320000010A524500D2924699F80C100AF10300C7
:1032100000911FFA8AF3E16887082846F2B202F0AB
:1032200019FBE16801EB0A00E060616901EB0A004B
:103230006061D8F8180980B2B84205D3D4E9040116
:10324000814201D20028D9D1D4E90401884208D8AA
:10325000D5F83418012006F00F0290408143C5F8DC
:1032600034180020BDE770472DE9F047454D04466E
:1032700089464FF0000A2868C04380070AD0414EB3
:10328000283E306820F080603060FDF71FFA074666
:10329000B04608E00120BDE8F08700BFFDF716FA50
:1032A000C01B022867D8D8F800000001F6D42068B7
:1032B00029684FF4FE0721F47C313E0241EA0030D8
:1032C0002860207AA389B4F804C040022D4D2D490E
:1032D0005B1E227CACF1010C1035091DA0F50070BD
:1032E00080B2521ECCF3080C07EA034340EA0C00FC
:1032F000184306EA0262104328600868626920F0F9
:10330000C000104308600A68A06922F0200202434E
:103310000A60281D0A6822F010020A6002684FF64F
:10332000F873E4699A4342EAC40202600868B9F19A
:10333000000F40F010020A6011D00868B9F1010FC7
:1033400011D040F400100860D8F80000444640F066
:103350008060C8F80000FDF7B9F905460DE008687F
:1033600040F40020EFE740F48010ECE7FDF7AEF901
:10337000401B022801D903208DE720680001F5D504
:10338000504688E7284402582DE9F047454D044649
:1033900089464FF0000A2868C04380070AD0414E92
:1033A000283E306820F080503060FDF78FF90746E6
:1033B000B04608E00120BDE8F08700BFFDF786F9C0
:1033C000C01B022867D8D8F800008000F6D42088F7
:1033D00029684FF4FE0721F07C713E0241EA00505B
:1033E0002860207AA389B4F804C040022D4D2D49ED
:1033F0005B1E227CACF1010C1835091DA0F5007094
:1034000080B2521ECCF3080C07EA034340EA0C00DA
:10341000184306EA0262104328600868626920F4D3
:103420004060104308600A68A06922F400720243F9
:103430000A60281D0A6822F480720A6002684FF64A
:10344000F873E4699A4342EAC40202600868B9F179
:10345000000F40F480720A6011D00868B9F1010FC2
:1034600011D040F080700860D8F80000444640F069
:103470008050C8F80000FDF729F905460DE00868FE
:1034800040F48000EFE740F40000ECE7FDF71EF9A0
:10349000401B022801D903208DE720688000F5D564
:1034A000504688E7284402582DE9F0410446006858
:1034B0000025C168490617D4691EC160FDF706F9E9
:1034C000032706464FF47A7808E000BFFDF7FEF8C0
:1034D000801B404502D9032584F821702068C0680C
:1034E000400601D4032DF1D12846BDE8F08100004B
:1034F0002DE9F041124C032706460025E06820F034
:103500004000E060A068800607D43046FFF750FA1C
:1035100090B1032586F821700EE0A06820F020000D
:10352000A0603046FFF744FA10B1032586F82170F9
:10353000A06840F02000A0602846BDE8F0810000AF
:103540000040005870470178407841EA00207047F9
:10355000FDF7C2B830B59DB04C216846FCF71CFFA2
:10356000202113A8FCF718FF0220FDF7E5FE2048F4
:103570000024016821F4404141F4004101600168E8
:1035800001F440411B9101688904FCD50220099097
:103590000922C5030F230121CDE9002505910C2245
:1035A0000A9040F68635CDE90B03CDE90D100FA941
:1035B00081E835006846FEF7F5FE08B172B6FEE711
:1035C0000DF14C0C3F2103228CE81600402016948C
:1035D00017A95023050181E8290000211A9013A89A
:1035E000FEF7D0FC002801D072B6FEE71DB030BD5A
:1035F000184802582748F0B5274A016841F470017D
:103600000160106800F00F00072804D2106820F055
:103610000F00C01D106021490020204C10340B68A1
:103620001F4D43F001030B6020600B682B400B60C3
:10363000136803F00F03072B04D9136823F00F035B
:10364000DB1D1360154C174A1834174B261D371D08
:103650002060124C154D28343060261D3860371D0F
:1036600023603B1D35601C1D3A60251D2E1D186012
:10367000331D22602860326018600A6843F2D20469
:10368000064B0B4D22F4802260330A6018602C60D8
:10369000F0BD000088ED00E0002000520044025818
:1036A0007FEDF6EA80020101000202020000FF0144
:1036B0000040005230B5416EB9B101680D4B03F1C5
:1036C00008048A688968C2F34262490F5D5C615CE4
:1036D0002D01B5FBF1F1A0F86A10995CA25C09011B
:1036E000B1FBF2F1A0F8681030BD0121A0F86A101A
:1036F000F8E700004859000890F82810C90706D0DC
:103700000168C36A4A6822F400321A434A6090F89A
:103710002810890706D50168036B4A6822F48032B5
:103720001A434A6090F82810490706D50168436B90
:103730004A6822F480221A434A6090F82810090748
:1037400006D50168836B4A6822F400421A434A6036
:1037500090F82810C90606D50168C36B8A6822F460
:1037600080521A438A6090F82810890606D50168AD
:10377000036C8A6822F400521A438A6090F8281079
:10378000490611D50168436C4A6822F480121A4335
:103790004A60416CB1F5801F06D10168836C4A68AC
:1037A00022F4C0021A434A6090F82810090606D590
:1037B0000168C26C486820F40020104348607047DC
:1037C0002DE9F84300250446C0F89050FCF77EFF31
:1037D0008046206820266FF07E470068000713D5DA
:1037E0000022434631042046009700F057FA58B1B2
:1037F000216851E8000F20F0800041E80002002A13
:10380000F6D1C4F8886021E020680068400722D51E
:10381000002243464FF480012046009700F03EFA14
:10382000C8B1206850E8001F21F4907140E80012F0
:10383000002AF6D12068083050E8001F21F001016D
:1038400040E80012002AF5D1C4F88C60032084F807
:103850008450BDE8F883C4F88860C4F88C60E566DD
:103860002567002084F88450F3E7000010B5026853
:1038700052E8001F21F4907142E80013002BF6D1AA
:103880000E4B0268083252E8001F194042E800144B
:10389000002CF6D1C16E012908D1026852E8001F40
:1038A00021F0100142E80013002BF6D10021202264
:1038B000C0F88C20C166416710BD0000FEFFFFEF1D
:1038C0002DE9F04304468068E24E87B0E24B216860
:1038D000D4E90427D4F81CC010430A68002547EA3D
:1038E0000C073843324002430A602068E2684168AE
:1038F00021F44051114341602268A1699A4201D0EC
:10390000206A01439668DFF854C3D54FD54806EACC
:103910000C060E4396602168666ACA6A22F00F029E
:103920003243CA622268BA420ED1006800F0380001
:1039300018286FD07ADCB8B308286CD010286BD167
:103940008BE0282868D18EE0C7498A4209D10068F7
:1039500000F0070006285FD2DFE800F0507D7F818D
:103960008385C2498A4209D1006800F00700062811
:103970007BD2DFE800F0437072747678BC498A42EB
:1039800009D1006800F0070006286ED2DFE800F0D9
:1039900036636567696BB7498A420BD1006800F0EE
:1039A0000700062861D200E043E0DFE800F027547A
:1039B00056585A5CB0498A4206D1006800F0380077
:1039C00018284CD0B7DD31E0AC498A4209D10068F3
:1039D00000F00700062848D2DFE800F0103D3F4124
:1039E0004345A7498A420BD1006800F0070006282A
:1039F0003BD2DFE800F0033032343638002035E0C7
:103A0000A0498A4209D1006800F03800182826D061
:103A100091DD0BE023E01EE027E09B498A420AD1BA
:103A2000006800F03800182819D084DD202888D1DB
:103A30001CE001201AE09A4217D18A48001D006854
:103A400000F00700062810D2DFE800F003050709A0
:103A50000B0D02200AE0042008E0082006E01020F8
:103A600004E0202002E0402000E080208749DFF8C9
:103A700020829A42874A4FF400434FEA21174FF0C1
:103A800000064ED110281AD006DC022809D00428DE
:103A90000BD008287ED10DE020283ED0402879D1D7
:103AA0003DE0FDF77BFC014610E06846FDF788FC31
:103AB00001990BE003A8FDF725FD049906E01068C5
:103AC000800605D51068C0F3C100C140002970D040
:103AD000606A676838F8102007EB4703B1FBF2F023
:103AE000834257D8B0EB073F54D800230846194605
:103AF000FCF708FC02467808130E120243EA012183
:103B000010183A4671410023FCF7FCFB624AA0F50D
:103B1000407191423ED821688FE03946D8E7194676
:103B2000D6E7D4F81CC04FF6EF799C4546D108285B
:103B300019D005DC58B101280CD0042875D10DE04E
:103B4000102815D0202835D040286ED134E0FEF75B
:103B500069FB01E0FEF778FB014610E06846FDF7DF
:103B60002FFC01990BE003A8FDF7CCFC049906E0BB
:103B70001068800604D51068C0F3C100C140C1B10F
:103B8000636A606838F81330B1FBF3F1490001EB68
:103B9000500100E049E0B1FBF0F0A0F1100149450F
:103BA00043D84FF6F0732168C0F342021840104327
:103BB00043E043E03946E3E71946E1E7082819D036
:103BC00005DC58B101280CD004282ED10DE01028B6
:103BD00015D020282BD0402827D12AE0FEF722FB41
:103BE00001E0FEF731FB014610E06846FDF7E8FB17
:103BF00001990BE003A8FDF785FC049906E0106825
:103C0000800604D51068C0F3C100C140B1B1636A39
:103C1000606838F81330B1FBF3F101EB5001B1FBF0
:103C2000F0F0A0F11001494505D9012506E039461B
:103C3000EDE71946EBE7216880B2C8600120A4F8DF
:103C40006A00A4F8680028466667A66707B0BDE862
:103C5000F0830000F369FFCF000C0058FFF4FF1160
:103C60000010014054440258004400400048004005
:103C7000004C00400050004000140140007800401B
:103C8000007C004000180140001C01400090D0035F
:103C90003059000800440258FFFC0F002DE9F0479E
:103CA000994617460E460446089D4FF000082FE03F
:103CB000681C2DD0FCF70AFDA0EB0900A84214D81F
:103CC0009DB120680168490722D5C169C943090728
:103CD0000DD4082505622046FFF7C8FDC4F89050B2
:103CE000012084F88480BDE8F0870320FBE7C069E9
:103CF000C04300050CD421684FF4006008622046E0
:103D0000FFF7B4FD2021C4F8901084F88480ECE71C
:103D10002068C06936EA000004D00020B842C7D04D
:103D20000020E0E70120F9E72DE9F0410C46D0F84A
:103D3000D412D0F8C83200EB8101D1F8C01229B3F7
:103D400004F00F02002702EB820500EB8506B5693F
:103D50004DB102EBC20203EB8202526CB5FBF2F3EF
:103D600002FB1352A2B1C1F81471D0F8D42200EBB7
:103D70008200D0F8C40203692BB1D1F8080101F523
:103D80008871224698470020BDE8F0810320FBE7B8
:103D9000002321461A46B76100F0F2FDF3E770B543
:103DA0000546D0F8D40205EB8000D0F8C04294B1AB
:103DB000284600F0BCFCC4F80C01D5F8D40205EB91
:103DC0008000D0F8C412D4F80401CA6804F58671E2
:103DD0009047002070BD032070BD000070B5224DDB
:103DE0000446297800F0E4FB2878002600F00F0054
:103DF00000EB800004EB800086842046697800F0A8
:103E0000D7FB687800F00F0000EB800004EB800027
:103E1000A0F864612046A97800F0CAFBA87800F0F9
:103E20000F0000EB800004EB80008684C684D4F889
:103E3000D40204EB8000D0F8C01299B1D0F8C402CB
:103E400040688047D4F8D40204EB8000D0F8C00268
:103E500000F0BFFFD4F8D40204EB8000C0F8C062C9
:103E6000C4F8BC62002070BD8C00002410B5D0F8EE
:103E7000D41200EB8100D0F8C04284B1D0F8C41253
:103E800059B194F80001FF2807D08B68214694F8B7
:103E900001219847FF2084F80001002010BD032075
:103EA00010BD00000A2101800048704790000024E6
:103EB00070B5822106460D4800F092FA01210546B0
:103EC0000A4800F08DFA81210446084800F088FA7B
:103ED0000DB11021A9714FF0200104B1A18000B1F2
:103EE000818043203080014870BD00009C00002488
:103EF00070B5822106460D4800F072FA0121054690
:103F00000A4800F06DFA81210446084800F068FA7A
:103F10000DB11021A9714FF4807104B1A18000B1DD
:103F2000818043203080014870BD00009C00002447
:103F300070B5822106460D4800F052FA012105466F
:103F40000A4800F04DFA81210446084800F048FA7A
:103F50000DB11021A9714FF0200104B1A18000B171
:103F6000818043203080014870BD00009C00002407
:103F70002DE9F0474FF48E750446284600F02AFFDD
:103F800006004FF0000965D02946FCF705FAD4F881
:103F9000D40201273C4D4FF4807A4FF0100804EB17
:103FA0008000C0F8C062C4F8BC62207CF0B32978FD
:103FB00020230222204600F02DFC2878202300F048
:103FC0000F0000EB800004EB8000878402226978F8
:103FD000204600F01FFC697808230322204601F0E8
:103FE0000F0101EB810104EB8101A1F86471A97853
:103FF00001F00F0101EB810104EB8101A1F82680A2
:10400000A97800F007FCA978C84601F00F0101EB80
:10401000810104EB81018F84C6F80491D4F8D402A5
:1040200004EB8000D0F8C402006800E01AE006F556
:1040300082768047C6F81080C6F8148032687AB15C
:10404000207CF8B120236978204600F0EFFB0020A7
:10405000BDE8F087D4F8D41204EB8101C1F8C09216
:104060000220F5E7297802225346204600F0D2FBD1
:104070002878534600F00F0000EB800004EB80002E
:104080008784A3E75346DEE78C00002410B5D0F800
:10409000D41200EB8101D1F8C01259B1027C084C56
:1040A000002AD1F8042107D02023617800F0BEFB5C
:1040B000002010BD032010BD4FF48073F5E7000011
:1040C0008C00002439B1D0F8D42200EB8200C0F873
:1040D000C4120020704703207047D0F8D42200EBB0
:1040E0008200D0F8C00218B1C0F804110020704757
:1040F00003207047D0F8D43200EB8300D0F8C00220
:1041000028B1C0F81021C0F8081100207047032022
:1041100070472DE9FC410646D0F8D4020C46002138
:1041200006EB80000D46D0F8C0728DF80010ADF897
:10413000041037B1217811F060022CD0202A48D128
:1041400002E00320BDE8FC81E288E2B109060BD55C
:10415000D0F8C4023946836860789847E288072A15
:1041600000D9072239462CE0607887F80001E08802
:10417000402800D340203946C2B2304687F801219A
:1041800000F07FF82AE0D0F8C402002221468368BC
:104190006078984722E0607830B101281ED00A2864
:1041A00009D00B2815D110E096F89C02032810D1F5
:1041B000022201A905E096F89C02032809D10122F8
:1041C0006946304600F077F808E096F89C0203282C
:1041D00004D02146304600F049F803252846B1E7CF
:1041E00010B5D0F8D41200EB81020121D2F8C02220
:1041F0001AB1D2F8143113B116E0032010BD0B49E7
:104200000123C2F81431D2F81031097801F00F04FB
:1042100004EB840400EB8404A361D2F81031D2F8DB
:10422000082100F0ADFB0021084610BD8C000024E1
:1042300010B5D0F8B82200245268904700B103248A
:10424000204610BD002070470020704713460A46E4
:10425000002110B500F0EAFA002010BD13460A460E
:10426000002110B500F08CFB002010BD10B580219E
:10427000044600F066FB2046BDE81040002100F037
:1042800060BB10B5C0F858210323C0F89432C0F8C1
:104290005C2113460A46002100F0C8FA002010BD38
:1042A00010B50521C0F8941200231A46194600F0F3
:1042B000BDFA002010BD10B582610223C0F894320F
:1042C000C26113460A46002100F05AFB002010BDCF
:1042D00010B50421C0F8941200231A46194600F0C4
:1042E0004FFB002010BDF8B504460D460020ADF888
:1042F00000004888010A062947D006DC01290FD0B2
:10430000022912D0032962D11DE0072946D00F29C6
:104310005DD1D4F8B402C26920E0694690473BE021
:10432000D4F8B412207C0A68F7E7207C0226002823
:10433000D4F8B80205D0C16A68468847014646707D
:1043400036E0816AF8E7C0B2062840D2DFE800F024
:1043500003090D111519D4F8B4024268B2B3207CD8
:10436000DBE7D4F8B4028268F8E7D4F8B402C26894
:10437000F4E7D4F8B4020269F0E7D4F8B402426971
:10438000ECE7D4F8B4028269E8E7207CF0B9D4F80D
:10439000B802416B68468847014609E0207CA8B90D
:1043A000D4F8B802016B6846884701460720487078
:1043B000EA888AB1BDF8000040B1824200D90246C5
:1043C0002046ADF80020FFF776FFF8BDFFE729464D
:1043D0002046FFF74BFFF8E72046FFF779FFF4E7A9
:1043E00078B542880D460178002604468A4212D9E3
:1043F000ADF800100AE0694600F00FF84178052991
:1044000004D181780646A94205D000266188BDF80E
:1044100000209142EFD8304678BD0A8803781A44CC
:104420000A8001780844704770B500284FF00005F5
:104430001ED004462E4602E0761C641CF6B2237899
:10444000002BF9D1022404EB4604148012786B1C73
:1044500003264A550024AA1CCE5406E0551C8B5452
:10446000EAB2531C401C8C54DAB20378002BF5D10D
:1044700070BD01004FF0000004D0012901D00229D5
:1044800001D00320704701207047000004A00A46B5
:10449000024910B5FFF7C8FF004810BD34050024DD
:1044A00043444320436F6E66696700001220088012
:1044B000004870473800002404A00A46024910B59D
:1044C000FFF7B2FF004810BD3405002443444320E9
:1044D000496E74657266616365000000042008809F
:1044E000004870473400002404A00A46024910B571
:1044F000FFF79AFF004810BD3405002453544D695E
:1045000063726F656C656374726F6E6963730000CC
:1045100004A00A46024910B5FFF786FF004810BD07
:104520003405002453544D3332205669727475613A
:104530006C20436F6D506F727400000010B51A202C
:1045400008800B480A490830021F0968006814688F
:10455000081809D007490822FEF742FC0549042241
:1045600020461031FEF73CFC0248801E10BD0000C2
:1045700000E8F11F5A00002478B10023C0F8B832D7
:10458000C0F8C432C0F8D03209B1C0F8B412012169
:10459000027080F89C1200F0CFB80320704710B56D
:1045A000D0F8C802FCF7C8F9BDE81040FFF761BFBA
:1045B00010B5D0F8C802FCF799F9BDE81040FFF734
:1045C00058BF2DE9F041174604464FF0000521B1D0
:1045D00094F89C02032842D04CE0D4F8941204F1E1
:1045E0001400022935D1D0E902639E4206D9F21A9D
:1045F000394682602046FFF731FE0FE0B34214D106
:104600004068984211D3D4F8981288420DD2002203
:1046100020461146FFF722FEC4F8985200231A469E
:104620001946204600F002F913E094F89C02032892
:1046300008D1D4F8B802C16821B1C4F8D452C16815
:10464000204688478021204600F07BF92046FFF76E
:1046500027FE94F8A00268B184F8A0520AE0D4F8CA
:10466000B802426932B1C4F8D45242692046904738
:10467000002800D10020BDE8F08170B51346044643
:104680004FF0000221B194F89C02032830D03AE0A8
:10469000D4F8941204F5AA70032934D1D0E9025158
:1046A0008D420AD96A1A82600846824200D30246C5
:1046B00019462046FFF7CAFD25E094F8AA0210F03B
:1046C0001F0003D0012802D0022800D0002294F855
:1046D0009C02032808D1D4F8B802016921B1C4F8BA
:1046E000D4220169204688472046FFF7F1FD0AE001
:1046F000D4F8B802836933B1C4F8D4228269204661
:104700009047002800D1002070BD0020704710B5F0
:10471000D0F8B812012280F89C22002429B1037934
:104720004A68D9B2904700B10324204610BDD0F8A2
:10473000C802FCF72FB9000070B5017801292AD111
:10474000164902230022164C01260925C1F8080546
:10475000C0F8C8120846C1E90323C1E90632C1E91D
:104760000826C1E90B624A63C1E90045FCF790FCE9
:1047700008B1FBF782FE09484FF40071FCF765F8B9
:10478000064880220021FCF764F8044801214FF418
:10479000BA72FCF75EF8002070BD000054180024C7
:1047A00000000440D0F8C82201F07F000B0600EBA7
:1047B000C00002EB800002D590F83E00704790F8F0
:1047C0007E02704710B5D0F8D42200EB8202D2F8F6
:1047D000B82222B190F89C32032B02D004E00320CF
:1047E00010BD126A02B19047002010BD10B5D0F87C
:1047F000D42200EB8202D2F8B82222B190F89C3287
:10480000032B02D004E0032010BD526A02B190478E
:10481000002010BD10B51C46D0F8C8021346224631
:10482000FCF7C1F8BDE81040FFF723BE10B5D0F883
:10483000C802FCF7E8F8BDE81040FFF71ABE2DE902
:10484000F041044601250020D4F8B812064684F849
:104850009C52C4F894026060C4F8A40284F8A002D8
:1048600031B14A6822B100212046904700B10326A9
:104870002046002240231146FFF7CCFF4027A4F832
:10488000645100223B4680212046C4F86071FFF746
:10489000C1FFA58430462762BDE8F08190F89C12E4
:1048A000042903D190F89D1280F89C1200207047D3
:1048B00010B590F89C12032905D1D0F8B81211B1A7
:1048C000C96901B18847002010BD017400207047FC
:1048D00010B5D0F8C802FCF7DBFCBDE81040FFF7CC
:1048E000C8BD70B5044600F2AA20054600F051F894
:1048F00094F8AA020123B4F8B01210F01F02C4F811
:104900009432C4F898120AD0012A0ED0022A12D08A
:1049100000F080012046BDE8704000F012B8294642
:104920002046BDE8704000F0D1B829462046BDE8D9
:10493000704000F014BA29462046BDE8704000F0EF
:104940005CB910B5D0F8C802FCF777F8BDE81040A4
:10495000FFF78FBD10B5D0F8C802FCF7B4FCBDE876
:104960001040FFF786BD90F89C12042903D090F800
:104970009C1280F89D12042180F89C120020704740
:1049800010B5D0F8C802FCF792F8BDE81040FFF768
:1049900070BD70B5054608788C1C28704878687022
:1049A0002046FEF7D0FDA41C68802046FEF7CBFD14
:1049B000A880A01CFEF7C7FDE88070BD38B504468E
:1049C0000020ADF80000A1B1C4F8B812D4F8D402A8
:1049D00004EB8000D0F8B802C16A19B16846884774
:1049E000C4F8D002D4F8D802401CC4F8D802002081
:1049F00038BD032038BDD0F8B83202460020002B65
:104A000002D01B6810461847704700002DE9F0419E
:104A10002C4E0446887800258846C1B201293170A1
:104A200006D941462046FFF721FC0320BDE8F0816E
:104A300094F89C02022702280CD003281DD041467E
:104A40002046FFF713FC31782046FFF7F1FB0325E2
:104A50002846EBE789B320466160FFF7CCFF0500ED
:104A600004D041462046FFF701FC1DE02046FFF739
:104A70002FFC032084F89C02EAE7C1B160688842F9
:104A80001BD0C1B22046FFF7D3FB317820466160CE
:104A9000FFF7B1FF050010D041462046FFF7E6FBC7
:104AA00021792046FFF7C4FB84F89C72D0E761604F
:104AB00084F89C722046FFF7BBFB2046FFF708FCFA
:104AC000C6E7000088000024FFF744BF2DE9F0414D
:104AD0000A784FF0000512F060020CD0202A01D0B5
:104AE000402A7DD1D0F8D42200EB8202D2F8B8223D
:104AF0009268904731E04B78002201260A2B6FD252
:104B0000DFE803F041666E586E08056E2D29FFF749
:104B1000EAFB67E004468888D8B9C888C8B94888DD
:104B2000802816D294F89C2200F07F07032A10D028
:104B30003946204684F89E72FFF7CAFE2046FFF7EA
:104B4000C7FB1FB1022084F89C024BE084F89C62F2
:104B500048E0204644E0FFF759FF054642E0CB8895
:104B6000012B3DD190F89C32012B04D0022B02D0B6
:104B7000032B35D104E000F108018260012216E028
:104B80000122011D13E090F89C22012A03D0022A81
:104B900001D0032A24D1CA88022A21D1D0F8A41234
:104BA000C66009B10321C160022200F10C01FFF7C8
:104BB00082FB17E04A88012A02D0022A03D00FE0C4
:104BC000C0F8A46216E08988090A80F8A01211E0F2
:104BD00090F89C32012B08D0022B06D0032B04D076
:104BE000FFF744FB2846BDE8F08149880129F9D147
:104BF000C0F8A422FFF76CFBF4E72DE9F0410A7836
:104C00000E460979054612F060004FF00008CCB25C
:104C10000BD0202801D040286AD121462846FFF732
:104C200011FBFF2800D0D8B396E07078C8B30128F4
:104C300024D003285CD195F89C02022802D00328D6
:104C400056D10CE0002C53D0802C51D02146284660
:104C5000FFF777FE80212846FFF773FE7CE070881F
:104C600040B93CB1802C05D0F08818B921462846BF
:104C7000FFF767FE2846FFF72BFB6DE095F89C02D7
:104C80000228DFD0032863D1708880BB600603D080
:104C900021462846FFF783FC2846FFF719FBBCE7AF
:104CA00000E00AE0C5F8D402D5F8B8028268F2B193
:104CB00031462846904780464EE095F89C020027F2
:104CC000022802D0032843D113E00CB1802C3FD13D
:104CD000200604F07F0000EB800005EB800101D589
:104CE000143101E001F5AA7102220F602CE033E0DB
:104CF0002EE0200604F00F0000EB800005EB8000A2
:104D000009D5808C20B304F07F0000EB800005EB18
:104D1000800614360AE0B0F86401C8B104F07F00E0
:104D200000EB800005EB800606F5AA764CB1802CDE
:104D300007D021462846FFF735FD10B1012030602D
:104D400000E03760022231462846FFF7B4FA03E05C
:104D500031462846FFF78AFA4046BDE8F08170B533
:104D6000054608780E464FF0000410F0600003D0AE
:104D7000202801D0402827D195F89C02012803D093
:104D8000022801D003281FD1B088C1B201291AD846
:104D9000C1B22846FFF758FAFF280CD058B9D5F809
:104DA000B8128A683AB1C5F8D40228468A683146F2
:104DB0009047044600E00324F088204307D12846AA
:104DC000FFF786FA03E031462846FFF74FFA204600
:104DD00070BD7047004870473417002470B54D7897
:104DE00001230A78012D1C4C02F00F0503FA05F38C
:104DF000D0F81C5817D000EB421245EA0343C0F824
:104E00001C38D2F8000B00040BD40B890979D2F8B6
:104E1000000BC3F30A03184344EA81410843C2F874
:104E2000000B002070BD9EB23543C0F81C5800EB4B
:104E30004213D3F800090004F3D40D890979D3F89B
:104E40000009C5F30A058904284341EA8251084351
:104E50002043C3F80009E4E700800010D0F80019EF
:104E60006FF30A01C0F80019D0F8041841F48071FA
:104E7000C0F804180020704770B504461D46069916
:104E80000A9E0D9801291DD0E06840F04000E060C6
:104E9000204600F035F8A16B5EB321F48031A163A8
:104EA000012D0ED1E16D144A89B2E165E16D114326
:104EB000E165A16841F00601A160A16841F020010F
:104EC000A16070BDA26B01280C4922F48030A06360
:104ED000E06800EA0100E060E06820F44010E06073
:104EE00003D1E06840F48010E060204600F008F84C
:104EF000D6E741F48031D2E70000EE03BFFFBDFFEB
:104F000008B50E4900220092009B5B1C00938B4267
:104F10000CD80369002BF7DA0092026942F0010213
:104F20000261009A521C00928A4201D9032008BDF6
:104F30000269D207F5D1002008BD0000400D030032
:104F400070B50A7801234C78012C00EB42122CD06A
:104F5000D2F8004B002C0BDAD2F8004B44F000647E
:104F6000C2F8004BD2F8004B44F08044C2F8004B2A
:104F70000C78D0F83C5804F00F0403FA04F425EA46
:104F80000444C0F83C480978D0F81C4801F00F01EF
:104F90008B401C4924EA0343C0F81C38D2F8000BAC
:104FA0000840C2F8000B002070BDD2F80049002C68
:104FB0000BDAD2F8004944F00064C2F80049D2F894
:104FC000004944F08044C2F800490D78D0F83C48CC
:104FD00005F00F050C4E03FA05F5ADB2AC43C0F871
:104FE0003C48D0F81C48097801F00F018B4099B279
:104FF0008C43C0F81C48D2F800093040C2F80009C0
:10500000D1E700000078F3EF007833ECD0F8001E11
:1050100021F00301C0F8001ED0F8041821F00201AD
:10502000C0F8041800207047D0F8001E21F00301DA
:10503000C0F8001ED0F8041841F00201C0F80418AE
:10504000002070472DE9F04F9A460E460021044695
:10505000DDE90B3B109F0D46099A084604EB800CD6
:10506000CCF80411401C0F28F8D32046A7B1806B60
:1050700040F4001CC4F838C088460846C4F8000E46
:105080002046D4F80018012BC4F800181AD0D0F824
:10509000001841F003011AE0D0F8040840F0020CB7
:1050A000C4F804C8A06B20F4001CC4F838C0206801
:1050B00040F0400CC4F800C0206840F0800CC4F8F8
:1050C00000C0D9E7D0F800180AB141F00101C0F8DA
:1050D0000018102100F08CFA00B10125204600F0E4
:1050E00069FA00B1012540464FF000684FF67F3362
:1050F0004FF09049C4F81008C4F81408C4F81C080C
:10510000002114E004EB4112D2F800C9BCF1000FF9
:1051100006DA11B1C2F8009904E0C4F8008901E090
:10512000C2F80009C2F81009C2F80839491C8E42B9
:10513000E8D8002115E000BF04EB4112D2F800CB03
:10514000BCF1000F06DA11B1C2F8009B04E0C4F80C
:10515000008B01E0C2F8000BC2F8100BC2F8083B4C
:10516000491C8E42E8D8D4F81038BAF1000F6FF01D
:10517000804223F48073C4F81038A061626103D1C7
:10518000A06940F01000A061A069BBF1000F094ABE
:1051900040EA0200A06103D0A06940F00800A061CD
:1051A000012F03D1A06904490843A0612846BDE846
:1051B000F08F000000383C8004000040816821F03E
:1051C000010181600020704710B5144C036CA342AC
:1051D00003D9D0F8003B002B1EDB0023C0F8103BA6
:1051E0000129D0F8101B41F40021C0F8101BD0F8A1
:1051F000101B41F01801C0F8101BD0F8101B41F033
:10520000C041C0F8101B07D1C0F8142BD0F8001B08
:1052100041F08021C0F8001B002010BD0A30544F1F
:105220000B784A78012A00EB43100BD0D0F8002B02
:1052300022F40012C0F8002B0979032914D00229A6
:1052400012D017E0D0F8002922F40012C0F800298B
:105250000979032901D002290CD1D0F8001941F0B5
:105260008051C0F8001905E0D0F8001B41F08051D2
:10527000C0F8001B002070470A784B78D1B2012B90
:1052800000EB421012D0D0F8002B002A06DB29B127
:10529000D0F8001B21F08041C0F8001BD0F8001BA3
:1052A00041F40011C0F8001B00207047D0F800291D
:1052B000002A06DB29B1D0F8001921F08041C0F89E
:1052C0000019D0F8001941F40011C0F80019EBE7FB
:1052D000F8B50B786FF060464F788A4DDCB2012F3D
:1052E00000EB43132BD0D3F8107B002C07EAC54406
:1052F000C3F8104BD3F8104B04EA0504C3F8104B65
:105300007ED00D69002D7CD08C6825446D1EB5FBC8
:10531000F4F5ADB26C430C6206EAC545D3F8104B08
:105320002C43C3F8104BD3F8104B0D6AC5F312058C
:1053300054EA0504C3F8104B012A6ED0C9E00F6986
:1053400037B3D3F810796FF31207C3F81079D3F895
:10535000107907EA0507C3F810794CB30F698D6817
:10536000D3F810C92F447F1EB7FBF5F506EAC545F3
:1053700045EA0C05C3F810590E69D3F81059C6F365
:1053800012063543C3F810590D79012D1CD027E0C2
:10539000D3F810692E40C3F81069D3F8105945F4BA
:1053A0000025C3F81059D3F810596FF3120515E012
:1053B0000E698D68AE4200D90D61D0F8106946F4CF
:1053C0000026C0F81069D7E7D3F8105925F0C0457A
:1053D000C3F81059D3F8105945F00055C3F81059C7
:1053E000012A1BD000EB4413D3F8004944F00444D5
:1053F000C3F800490C79012C31D00A6972B301E07D
:1054000042E055E00B78D0F83418012203F00F0386
:105410009A401143C0F8341871E056E0CA691AB1D5
:1054200000EB4413C3F81429097901290ED1D0F8EF
:105430000818C90500EB4411D1F8002902D442F044
:10544000005201E042F08052C1F8002900EB441004
:10545000D0F8001941F00441C0F800194FE0D0F82D
:105460000848E405D3F8004902D444F0005401E0B0
:1054700044F08054C3F8004900920B8A0A78C96846
:105480009BB200F0E7F93AE00C690CB18C680C6152
:105490008C680C62C4F31205D0F8104B2C43C0F892
:1054A000104BD0F8104B44F40024C0F8104B43E7E5
:1054B0008D68D3F8104BC5F312052C43C3F8104B7D
:1054C000D3F8104B44F4002434E7CA680AB1C3F897
:1054D000142B097901290CD1D0F80808C005D3F89C
:1054E000000B02D440F0005001E040F08050C3F8BF
:1054F000000BD3F8000B40F00440C3F8000B002071
:10550000F8BD0000FFFF07E038B5002242F210743A
:10551000002300920A784D78012D00EB421219D039
:10552000D2F8005B002D3CDAD2F8005B45F0006554
:10553000C2F8005B0A7800EB4212D2F8005B45F03B
:105540008045C2F8005B009A521C0092A24221D909
:10555000012326E0D2F80059002D22DAD2F80059B2
:1055600045F00065C2F800590A7800EB4212D2F803
:10557000005945F08045C2F80059009A521C00922B
:10558000A242E5D80A7800EB4212D2F80029002A9C
:10559000F3DB06E00A7800EB4212D2F8002B002A77
:1055A000D1DB184638BD816841F0010181600020DF
:1055B0007047000008B50D4900220092009B5B1C5B
:1055C00000938B420AD80369002BF7DA009210236C
:1055D0000361009A521C00928A4201D9032008BD3F
:1055E0000269D206F5D4002008BD0000400D03007A
:1055F00018B50E4A00230093009C641C009494424A
:105600000CD80469002CF7DA2024009344EA8111B5
:1056100001610099491C0091914201D9032018BDF4
:1056200001698906F5D4002018BD0000400D030073
:10563000D0F8080810F0060004D0022803D006288D
:1056400001D00F20704702207047406900F0010030
:105650007047D0F81818D0F81C08084080B270477E
:10566000D0F81818D0F81C080840000C704710B586
:10567000D0F8102801F00F0300EB4114D0F83418D3
:10568000D4F80809D94001F0010142EAC1110840EB
:1056900010BD00EB4111D1F8081BD0F814080840E8
:1056A000704741698069084070470346084630B535
:1056B000940802F00301002203F5805303E01D6803
:1056C000521C40F8045BA242F9D300290CD01C689C
:1056D0000023491EDD00090403F10103090C24FA2B
:1056E00005F200F8012BF4D130BD70B50446C06856
:1056F00001294FF0000520F0C040E06001D079B1F1
:1057000020E0E06840F00050E0600120FAF7B8FEC9
:1057100060696D1C10F0010F10D1322DF5D30DE032
:10572000E06840F08040E0600120FAF7A9FE60697F
:105730006D1C10F0010F01D0322DF5D3322D01D0A8
:10574000002070BD012070BDD0F800284FF4FE632A
:1057500003EA011322F4FE62C0F80028D0F8001812
:105760001943C0F80018002070470000022A3ED1FB
:10577000264A274B0A449A4201D20F2138E0254A93
:10578000254B0A449A4201D20E2131E0234A244B90
:105790000A449A4201D20D212AE0224A224B0A44AD
:1057A0009A4201D20C2123E0204B214A0B44934220
:1057B00001D20B211CE01F4B1F4A0B44934201D224
:1057C0000A2115E01D4B1E4A0B4493420FD31D4B7B
:1057D0001D4A0B44934201D2082109E01B4B1C4A8D
:1057E0001944914201D2072102E0062100E009217B
:1057F000C2684FF4705322F47052C26003EA8123EE
:10580000C1681943C160002070470000405327FF62
:1058100000350C00401E1BFF40420F0000DC0BFF58
:10582000804F1200808CF9FE20D6130060B6E5FE92
:1058300060E3160000D3CEFE40771B00C05BB3FED2
:10584000C091210000CA91FE20753800E05459FE35
:10585000E09C410010B5029C74B900EB0232DB1CE5
:1058600000209B0802F5805204E000BF51F8044B71
:105870001460401C9842F9D3002010BDFEE70907D0
:1058800000284FEA116104DB00F1E02080F80014E9
:10589000704700F00F0000F1E02080F8141D704701
:1058A00002E008C8121F08C1002AFAD170477047E9
:1058B000002001E001C1121F002AFBD17047000047
:1058C0000EB5FAF711FFFDF745FEFDF7A5FAFDF756
:1058D00079FB13480021114A7F23FF2404C080E88C
:1058E0001A00C160416181610161001FFCF7EEFF98
:1058F00008B172B6FEE7FDF7C1FBFDF78DFB09A20B
:105900004FF4FA7407CA8DE8070009216846FAF7D0
:10591000A5FD2046FAF7B4FDF7E700000040005867
:105920001801002448656C6C6F200D0A000000000F
:10593000010002000400060008000A000C0010002C
:105940002000400080000001010101030701000068
:105950000804020408010101000000000102030420
:105960000102030406070809885900080000002402
:1059700018010000A0580008A05A000818010024CF
:1059800048200000B058000801000000100000008E
:10599000000000000090D0030090D003AD44000848
:1059A000DD440008E9440008114500083D450008B1
:1059B0008D440008B94400080000000004030904F5
:1059C000120100020202004083044057000201025B
:1059D00003010000050F0C00010710020200000087
:1059E0001A0300000000000000000000000000009A
:1059F0000000000000000000000000001D0400087E
:105A000017040008130400084104000859040008A2
:105A100000000000810182000A0600020000004030
:105A20000100000009024300020100C03209040025
:105A300000010202010005240010010524010001FB
:105A40000424020205240600010705820308001051
:105A500009040100020A00000007050102200000FD
:105A60000705810220000000713F0008DD3D0008AD
:105A700013410008000000006D3E0008293D0008A9
:105A80009F3D000800000000000000000000000032
:105A9000F13E0008B13E0008313F0008A53E000875
:04000005080002CD20
:00000001FF
